:100000000C94DB020C940C030C940C030C940C0366
:100010000C940C030C940C030C940C030C940C0324
:100020000C940C030C940C030C940C030C940C0314
:100030000C940C030C940C030C940C030C940C0304
:100040000C940C030C940B230C940C030C940C03D5
:100050000C940C030C940C030C940C030C94CF0E16
:100060000C940C030C94CA1F0C94A01F0C940C034A
:100070000C940C030C940C030C940C030C940C03C4
:100080000C94DD220C940C030C940C030C940C03C4
:100090000C940C030C940C030C940C030C9404208F
:1000A0000C940C030C940C030C94AF220C940C03D2
:1000B0000C940C030C940C030C940C030C948122F0
:1000C0000C940C030C940C030C940C030C940C0374
:1000D0000C940C030C940C030C940C030C940C0364
:1000E0000C940C032410271016101A101E105E100A
:1000F0002B102F10351039103D10431047104B10A6
:100100005E105110551059100C94D9030C945110D5
:100110000C9424100C947B070C94141F0C944B0B20
:100120000C94CC030C943D100C946D160C94F103BC
:100130000C940A060C9418050C947F0D0C94001E68
:100140000C944B070C94FD180C94390C0C949D1FC7
:100150000C946A0E0C9435100C9447100C948B166A
:100160000C94100E0C94E2030C94E0030C944310D6
:100170000C94740C0C94170E0C9455100C94CF1D09
:100180000C9472160C9406040C943A090C94DE1D1F
:100190000C94A4160C948B2A0C9485160C9427109E
:1001A0000C94151F0C9430080C9488160C94381F6E
:1001B0000C944B100C94F50A0C94F4030C94591005
:1001C0000C9426060C94381E0C9420030C943910C1
:1001D0000C941A100C944C040C94F7030C94CF0359
:1001E0000C94FA030C940E030C94720E0C941D03E1
:1001F0000C94851E0C9478160C94630E0C94241F9A
:100200000C9442050C94EE030C94DA050C9417033D
:100210000C9411030C9428170C9414030C949C0E4A
:100220000C948F160C949B070C942B100C941610A6
:100230000C94D2030C945E100C946D1F0C94650EFC
:100240000C947C160C94401F0C942F100C94F21DEF
:100250000C944D0D0C94FD030C94B9080C941E10D5
:100260000C94A9170C94131F0C947F030C9475160F
:100270000C941A030C9400040C94120E0C94121F8C
:100280000C9403047374645F6D7367732F54696D0A
:10029000650063643731363663373463353532632E
:1002A000333131666263633266653561376263326A
:1002B000383900726F7373657269616C5F6D736753
:1002C000732F546F706963496E666F0030616435D7
:1002D00031663838666334343839326638633130E1
:1002E00036383430373736343630303500726F7345
:1002F00073657269616C5F6D7367732F4C6F670014
:1003000031316162643733316332353933333236F8
:1003100031636436313833626431326436323935B0
:1003200000726F7373657269616C5F6D7367732FB1
:1003300052657175657374506172616D0039663014
:100340006539386264613635393831393836646434
:1003500066353361666137613430653439007374F2
:10036000645F6D7367732F4D756C74694172726150
:100370007944696D656E73696F6E003463643063D0
:1003800038336138363833646561653430656364A9
:100390006163363065353362666138007374645F5B
:1003A0006D7367732F4D756C746941727261794C0E
:1003B00061796F7574003066656432613131633123
:1003C00033653131633535373162346532613939FE
:1003D000356139316133007374645F6D7367732FF6
:1003E000466C6F617433324D756C74694172726121
:1003F0007900366134306530666661366131376167
:1004000035303361633366383631363939316231EC
:1004100066360067656F6D657472795F6D736773BB
:100420002F566563746F723300346138343262362C
:100430003566343133303834646332623130666269
:1004400034383465613766313700000021002400FC
:1004500027002A002D0030003300010100000401B4
:1004600007010A0100002200250028002B002E00B1
:100470003100340002010000050108010B010505EF
:100480000505070508080808020202020A0A08080A
:100490000404040401010101010101010303030338
:1004A00003030303040707070C0C0C0C0C0C0C0CC7
:1004B0000202020206060606060606060B0B0B0BD8
:1004C0000B0B0B0B010210202008081020401020FD
:1004D0004080020102010804020101020408102008
:1004E0004080804020100804020180040201804006
:1004F000201008040201080402010102040810206F
:100500004080010204081020408000000A0B02090C
:100510000C0D0E080703040100000000000000009D
:1005200000000000000000000000000000000000CB
:100530000000000000001211100000000000000088
:1005400000000000000000000000000000000000AB
:1005500067656F6D657472795F6D7367732F54771C
:10056000697374003966313935663838313234365A
:100570006664666132373938643164336565626355
:1005800061383461007374645F6D7367732F496EF3
:1005900074380032376666613063396334623866B6
:1005A00062383439323235326263616439653563B9
:1005B000353762008B2A11241FBECFEFD1E2DEBF98
:1005C000CDBF00E00CBF13E0A0E0B2E0E8E7F6E644
:1005D00000E00BBF02C007900D92AE36B107D9F70D
:1005E0002DE0AEE6B3E001C01D92A730B207E1F7FF
:1005F00012E0CBEDD2E000E006C021970109802F88
:10060000FE010E94D12ECA3DD10780E00807A9F75C
:100610000E94C2240C943A330C94000089E294E0C6
:10062000089583E194E0089582EF93E0089587EDC3
:1006300093E0089586EB93E008958CE993E00895A4
:100640008F929F92AF92BF92CF92DF92EF92FF92E2
:100650000F931F93CF93DF93EC018B018A81FB01F2
:1006600080838B8181838C8182838D818383C12C64
:10067000D12C812C912C540184E0E82EF12C4A815C
:100680005B816C817D81D801AE0DBF1D84169506FE
:10069000A606B706C0F48A899B898C0D9D1DFC01B6
:1006A00020813181F90120813181BD01F901199544
:1006B000E80EF91EFFEF8F1A9F0AAF0ABF0A8CE0FF
:1006C000C80ED11CDCCF8C898C938D8911968C93AC
:1006D00011978E8912968C9312978F8913968C930B
:1006E000C7010496DF91CF911F910F91FF90EF907A
:1006F000DF90CF90BF90AF909F908F900895CF9252
:10070000DF92FF920F931F93CF93DF93EC018B0146
:1007100002960E9420036801C80ED91E2A8DF60198
:1007200020832B8D21832C8D22832D8D2383049672
:10073000D60140E050E0BA010A8D1B8D2C8D3D8D15
:100740004017510762077307F8F49D012C193D0902
:100750000AA11BA1200F311FF901F0800181128134
:1007600023811496FC92149715960C931597169660
:100770001C93169717962C93179704964F5F5F4F0D
:100780006F4F7F4F1496D8CFDF91CF911F910F916C
:10079000FF90DF90CF9008958BE793E008958EE56A
:1007A00093E00895FB012081FC01228381E090E029
:1007B0000895FC018281FB01808381E090E008952F
:1007C000CB010895442341F021E030E0FC01338364
:1007D000228386E092E00895CB0108958DE393E0B3
:1007E000089581E293E0089580E093E008958DEE0E
:1007F00092E008958CEC92E0089583EB92E00895E6
:1008000082E992E0089584E892E00895FC01DB011A
:100810004C9150E060E070E04283538364837583C1
:1008200011968C911197582B42835383648375835F
:1008300012968C911297682B42835383648375833D
:1008400013968C911397782B42835383648375831B
:1008500014964C91149750E060E070E04683578303
:100860006087718715968C911597582B468357830F
:100870006087718716968C911697682B46835783ED
:100880006087718717968C91782B46835783608792
:10089000718788E090E00895DC01FB0112968C914D
:1008A0001297808313968C911397818314968C9161
:1008B0001497828315968C911597838316968C9145
:1008C0001697848317968C911797858318968C9129
:1008D0001897868319968C91878388E090E0089515
:1008E0008F929F92AF92BF92CF92DF92EF92FF9240
:1008F0000F931F93FC01DB01C380C294C69427E0D1
:10090000C2228C2C912CA12CB12C8D929D92AD9257
:10091000BC921397048110E020E030E043E0000F28
:10092000111F221F331F4A95D1F768017901C8288A
:10093000D928EA28FB28CD92DD92ED92FC921397FC
:10094000458150E060E070E01BE0440F551F661FDA
:10095000771F1A95D1F78A019B010C291D292E2991
:100960003F290D931D932D933C93139746814F7010
:1009700050E060E070E083E1440F551F661F771F71
:100980008A95D1F7402B512B622B732B4D935D939E
:100990006D937C931397868182958F7007810F7773
:1009A00010E020E030E094E0000F111F221F331F01
:1009B0009A95D1F7082B0115110521053105A1F0F4
:1009C000005813402109310997E1000F111F221F20
:1009D000331F9A95D1F7042B152B262B372B0D930C
:1009E0001D932D933C9313974781407850E060E02E
:1009F00070E0742F6627552744270D911D912D9186
:100A00003C911397402B512B622B732B4D935D938D
:100A10006D937C93139788E090E01F910F91FF9066
:100A2000EF90DF90CF90BF90AF909F908F90089500
:100A3000EF92FF920F931F93CF93DF938C017B0173
:100A4000BC016E5F7F4FC7010E947004EC01B801CA
:100A50006A5F7F4FC7018C0F9D1F0E947004C80FF3
:100A6000D91FB801665F7F4FC7018C0F9D1F0E9481
:100A700070048C0F9D1FDF91CF911F910F91FF90FC
:100A8000EF900895EF92FF920F931F93CF93DF9310
:100A90007C01EB0102960E9418058C01BE01680FD3
:100AA000791FC70140960E941805800F911FDF91A2
:100AB000CF911F910F91FF90EF9008958F929F9289
:100AC000AF92BF92CF92DF92EF92FF92CF93DF93DC
:100AD000EC014A015B01DB01CA0157E1B595A7951D
:100AE000979587955A95D1F79927AA27BB270097FD
:100AF000A105B10521F080589C4FAF4FBF4F188220
:100B000019821A82B501A40125E0440F551F661F02
:100B1000771F2A95D1F74B83B501A40133E0759572
:100B20006795579547953A95D1F74C83B501A40140
:100B3000EBE07595679557954795EA95D1F74D8305
:100B4000B501A401F3E17595679557954795FA9519
:100B5000D1F7242F2F70AC01BD0134E0440F551F95
:100B6000661F771F3A95D1F7422B4E836C017D01AA
:100B700044E0F594E794D794C7944A95D1F720E0E0
:100B800030E0A901C501B4010E945A2F87FD02C0BF
:100B9000CF8203C08C2D80688F8388E090E0DF9146
:100BA000CF91FF90EF90DF90CF90BF90AF909F904C
:100BB0008F900895EF92FF920F931F93CF93DF933F
:100BC0007C018B01FC014281538164817581C801E4
:100BD0000E945E05EC01F7014681578160857185B1
:100BE000C8018C0F9D1F0E945E05C80FD91FF70119
:100BF0004285538564857585C8018C0F9D1F0E94B1
:100C00005E058C0F9D1FDF91CF911F910F91FF907B
:100C1000EF900895EF92FF920F931F93CF93DF937E
:100C20007C01EB0102960E94DA058C01BE01680F7F
:100C3000791FC70140960E94DA05800F911FDF914E
:100C4000CF911F910F91FF90EF9008958091EE0C3E
:100C50009091EF0CA091F00CB091F10C80936E0389
:100C600090936F03A0937003B09371036091EA0CAB
:100C70007091EB0C8091EC0C9091ED0C0E9409307E
:100C8000609372037093730380937403909375035E
:100C900020E230ED46E958E40E945F2F609376032E
:100CA0007093770380937803909379032091FD0CE0
:100CB0003091FE0CB901032E000C880B990B121613
:100CC00013063CF40E9409302EE83AEF41EC5EE353
:100CD00006C00E9409302FE73FED41ED5EE30E9420
:100CE000B93020E030E048EC53E40E945F2FDC0193
:100CF000CB01B05880937A0390937B03A0937C033D
:100D0000B0937D030E941B118091840B9091850B01
:100D1000A091860BB091870B80937E0390937F0305
:100D2000A0938003B09381038091880B9091890BED
:100D3000A0918A0BB0918B0B8093820390938303D5
:100D4000A0938403B093850380918C0B90918D0BBD
:100D5000A0918E0BB0918F0B8093860390938703A5
:100D6000A0938803B09389038091900B9091910B8D
:100D7000A091920BB091930B80938A0390938B0375
:100D8000A0938C03B0938D038091940B9091950B5D
:100D9000A091960BB091970B80938E0390938F0345
:100DA000A0939003B09391038091980B9091990B2D
:100DB000A0919A0BB0919B0B809392039093930315
:100DC000A0939403B093950380919C0B90919D0BFD
:100DD000A0919E0BB0919F0B8093960390939703E5
:100DE000A0939803B09399038091A00B9091A10BCD
:100DF000A091A20BB091A30B80939A0390939B03B5
:100E0000A0939C03B0939D038091A40B9091A50B9C
:100E1000A091A60BB091A70B80939E0390939F0384
:100E2000A093A003B093A1038EE693E090935006A5
:100E300080934F068DE090E0A0E0B0E080934706FD
:100E400090934806A0934906B0934A0680912906DC
:100E500090912A066091270670912806DC01ED9199
:100E6000FC910190F081E02D4DE256E01995109231
:100E7000EA0C1092EB0C1092EC0C1092ED0C10920C
:100E8000EE0C1092EF0C1092F00C1092F10C88E81E
:100E900096E00C94FD18CF93DF93EC018091AF03A3
:100EA0009091B0038230910599F46A8D7B8D8C8D81
:100EB0009D8D0E9462238C819D81AE81BF81809334
:100EC000AB039093AC03A093AD03B093AE0310C0FB
:100ED000019771F46A8D7B8D8C8D9D8D0E946223AC
:100EE0006C817D818E819F81DF91CF910C943F0F2A
:100EF000DF91CF910895FC018281082E000C990B9F
:100F00009093B0038093AF03892BA1F480E090E02D
:100F10000E94392360E086E00E94F50F1092F90CE0
:100F20001092F80C1092AB031092AC031092AD0328
:100F30001092AE0308954F925F926F927F928F92BC
:100F40009F92AF92BF92EF92FF920F931F93CF9316
:100F5000DF9300D01F92CDB7DEB78C017B01CE01AD
:100F600001960E94841D89819A81AB81BC814C01CC
:100F70005D0124E0820E911CA11CB11CA7014D5FF4
:100F80005F4FFA0124E030E02901612C712C4814F4
:100F900059046A047B0428F4618161932F5F3F4FF9
:100FA000F3CFE80EF91EF7011382F8015383428351
:100FB000F701448150E060E070E0F801448355831C
:100FC00066837783F7012581522BF801448355838B
:100FD00066837783F7012681622BF801448355836A
:100FE00066837783F7012781722BF8014483558349
:100FF00066837783F701408550E060E070E0F80198
:101000004087518762877387F7012185522BF8014A
:101010004087518762877387F7012285622BF80129
:101020004087518762877387F7012385722BF80108
:1010300040875187628773870C960F900F900F90AF
:101040000F90DF91CF911F910F91FF90EF90BF9084
:10105000AF909F908F907F906F905F904F9008958A
:101060004F925F926F927F92AF92BF92CF92DF9238
:10107000EF92FF920F931F93CF93DF93EC015B01ED
:10108000FB01C080D180E280F3808A819B81AC81AA
:10109000BD818C159D05AE05BF0560F48CE08C9D6F
:1010A000B0018D9D700D11248A899B890E94473261
:1010B0009B8B8A8BCA82DB82EC82FD82E12CF12C35
:1010C000412C512C320104E010E06E01F6E0CF0E0D
:1010D000D11C8A819B81AC81BD81F501E00FF11F9C
:1010E000481659066A067B06C8F4BF01C6010E946D
:1010F0009B07080F191FAA89BB89AE0DBF1D8CE085
:10110000F60101900D928A95E1F78FEF481A580A7F
:10111000680A780AECE0EE0EF11CDBCF808190E0EB
:10112000A0E0B0E08C8B9D8BAE8BBF8B2181922B8E
:101130008C8B9D8BAE8BBF8B2281A22B8C8B9D8B3E
:10114000AE8BBF8B2381B22B8C8B9D8BAE8BBF8BD9
:10115000C8010496DF91CF911F910F91FF90EF90FE
:10116000DF90CF90BF90AF907F906F905F904F9047
:101170000895AF92BF92CF92DF92EF92FF920F93BA
:101180001F93CF93DF93EC018B0102960E943008EE
:10119000080F191FF80120813181C280D12CE12C68
:1011A000F12C7601DD24CC24D32AC22A2381F22A11
:1011B0005C01F4E0AF0EB11C8A8D9B8DAC8DBD8DB2
:1011C0008C159D05AE05BF0558F4B601660F771F57
:1011D000660F771F8AA19BA10E9447329BA38AA317
:1011E000CA8EDB8EEC8EFD8E9801C12CD12C76013F
:1011F000AE01425E5F4F8A8D9B8DAC8DBD8DC81652
:10120000D906EA06FB0650F5F9016581868190E072
:10121000A0E0B0E0DC0199278827962B6481862B1B
:101220006781B62B8E8F9F8FA8A3B9A3F4E0AF0E72
:10123000B11CC901801B910BAAA1BBA1A80FB91FAA
:1012400084E0FA0101900D928A95E1F78FEFC81AB8
:10125000D80AE80AF80A2C5F3F4FCDCFC501DF91CD
:10126000CF911F910F91FF90EF90DF90CF90BF90A3
:10127000AF9008952F923F924F925F926F927F921C
:101280008F929F92AF92BF92CF92DF92EF92FF9296
:101290000F931F93CF93DF93CDB7DEB760970FB651
:1012A000F894DEBF0FBECDBF8C016B01DB018D90CA
:1012B0009D90AD90BC90FC0182819381A481B58109
:1012C00088159905AA05BB0570F4B401660F771F50
:1012D000660F771F828593850E944732D8011B963F
:1012E0009C938E931A97F80182829382A482B5828E
:1012F0009601812C912C540144E050E0B8016A5FC2
:101300007F4F2C5F3F4FF80182819381A481B5818B
:10131000FA0134961F0188169906AA06BB0650F5F5
:10132000D9011196FC90119712968C9190E0A0E053
:10133000B0E0DC01992788279F29F901F0808F29E7
:10134000F380BF29F80186839783A087B187DA01EC
:10135000A101149782859385A80FB91F84E0FB0132
:1013600001900D928A95E1F7FFEF8F1A9F0AAF0A5D
:10137000BF0AC7CF4601840E951ED4018C911196E9
:101380009C91119712964C901297512C612C712CB4
:10139000320155244424592A482A13968C91782ADC
:1013A0005F01F80184859585A685B7858415950527
:1013B000A605B70570F4B201660F771F660F771F99
:1013C000848995890E944732D80155969C938E93C3
:1013D0005497F8014486558666867786C401412C69
:1013E000512C32019801205F3F4FD8011C964D913E
:1013F0005D916D917C911F97F501349644165506C9
:101400006606770698F5DC011596FC9015971696FA
:101410004C91169750E060E070E0BA0155274427E0
:101420005F291496FC9014974F291796FC907F29FA
:10143000D80150964D935D936D937C9353975F01C4
:10144000AC014819590954960D90BC91A02DA40FD8
:10145000B51F44E0F90101900D924A95E1F7BFEF05
:101460004B1A5B0A6B0A7B0A0496BFCFD601AA0D02
:10147000BB1D8C9111969C91119712968C9012978E
:10148000912CA12CB12C540199248824992A882AC2
:1014900013968C91B82A7F01F80186899789A08DCF
:1014A000B18D88159905AA05BB0560F4B401660FD6
:1014B000771F848D958D0E944732D8015D969C934D
:1014C0008E935C97F801868A978AA08EB18E212C24
:1014D000312C812C912C54019801265E3F4F3A8784
:1014E0002987F80186899789A08DB18D881699067C
:1014F000AA06BB0608F05FC0B6016E0D7F1DCE01C7
:1015000001960E94841D97012C5F3F4F388B2F87D7
:1015100049815A816B817C81C901330FAA0BBB0BB6
:101520002C013D01440E551E661E771E4B865C86BF
:101530006D867E8623E0E20EF11CF601EE0DFF1DA6
:101540002F853889C901A0E0B0E04B845C846D84AC
:101550007E8484159505A605B70528F4A181A1937D
:101560002F5F3F4FEFCF6F847888460D571DF601F0
:10157000E40FF51F31971082C30101978C0D9D1D5B
:10158000D8015B969C938E935A977A015C96ED9165
:10159000FC915D97E20DF31DA985BA858D919C9113
:1015A00091838083BFEF8B1A9B0AAB0ABB0AE2E0F0
:1015B0002E0E311C96CFC70160960FB6F894DEBF91
:1015C0000FBECDBFDF91CF911F910F91FF90EF9094
:1015D000DF90CF90BF90AF909F908F907F906F9053
:1015E0005F904F903F902F9008954F925F926F922F
:1015F0007F928F929F92AF92BF92EF92FF920F9342
:101600001F93CF93DF9300D01F92CDB7DEB77C013D
:101610008B01FB018191BF01F7018283CE0101960D
:101620000E94841D89819A81AB81BC814C015D013E
:10163000F5E08F0E911CA11CB11CA8014C5F5F4FFF
:10164000FA0125E030E02901612C712C481459047D
:101650006A047B0428F4618161932F5F3F4FF3CFCD
:10166000F801E80FF91F1482F701548343830596AC
:101670000F900F900F900F90DF91CF911F910F91CE
:10168000FF90EF90BF90AF909F908F907F906F9062
:101690005F904F9008954F925F926F927F928F92DA
:1016A0009F92AF92BF92CF92DF92EF92FF920F93F1
:1016B0001F93CF93DF93CDB7DEB72C970FB6F89477
:1016C000DEBF0FBECDBF7C018B01DB018C9190E0B2
:1016D000F7019383828311962C91922B93838283BB
:1016E0006E5F7F4FCE0101960E94841D89809A8093
:1016F000AB80BC8024013501F6E04F0E511C611C0B
:10170000711C98012B5F3F4FF90186E090E0AC011E
:1017100060E070E0441555056605770520F44181C9
:1017200041930196F4CFF801E80DF91D1582D70118
:1017300015963C932E931497B4016A5F7F4F600F08
:10174000711FCE0105960E94841DBAE08B0E911C7C
:101750004D805E806F807884A401092C000C660B9C
:10176000770B440D551D661D771DD801A80DB91DB9
:10177000CD01801B910B5C01C12CD12CA416B506A8
:10178000C606D70628F48D91FD0132978083F0CFED
:101790005401A40CB51CB8016A0D7B1DFB013197E7
:1017A0001082C4010197800F911FF70197838683F0
:1017B000CE0109960E94841D95012C5F3F4F8985BB
:1017C0009A85AB85BC852901032E000C6608770835
:1017D000480E591E6A1E7B1EF5013396E00FF11F5D
:1017E000A9014A01A12CB12C84149504A604B704C4
:1017F00028F4618161934F5F5F4FF3CF820F931F96
:10180000F801E80FF91FDF0111971C9221503109EF
:10181000020F131FD70119961C930E93189721815D
:10182000428150E060E070E0BA0155274427522B16
:101830002081422B2381722BF701428753876487D3
:10184000758704962C960FB6F894DEBF0FBECDBFF9
:10185000DF91CF911F910F91FF90EF90DF90CF908C
:10186000BF90AF909F908F907F906F905F904F90C0
:101870000895EF92FF920F931F93CF93DF93EC01A4
:101880008B01AA81BB81FD0101900020E9F731970E
:101890007F01EA1AFB0AA70160E070E0C8010E941C
:1018A000B21D6A817B81A701C80104960E94313371
:1018B000F801EE0DFF1D8C8184838D8185838E81DF
:1018C00086838F81878388858087898581878A85BC
:1018D00082878B858387C7010C96DF91CF911F91FB
:1018E0000F91FF90EF9008954F925F926F927F92C9
:1018F000AF92BF92CF92DF92EF92FF920F931F931E
:10190000CF93DF93EC018B018A81FB0180838B8174
:1019100081838C8182838D818383DB0140E050E071
:10192000BA01E4E0F0E01496CA80DB80EC80FD8030
:10193000CF0104964C155D056E057F05C8F42A8518
:101940003B85E20FF31F3497D080F18032812381F1
:10195000DC921196FC92119712963C931297139673
:101960002C931397FC014F5F5F4F6F4F7F4FDBCF7F
:101970005F01A00EB11E2C85F50120832D852183EA
:101980002E8522832F852383D50140E050E0BA01C4
:10199000CC84DD84EE84FF849C012C5F3F4F4C158A
:1019A0005D056E057F05F8F4CD018A199B09EC8869
:1019B000FD888E0D9F1DFC01D080E180F280838127
:1019C0001496DC9214971596EC9215971696FC9245
:1019D000169717968C931797C9014F5F5F4F6F4FFC
:1019E0007F4F1496D5CFF801E80FF91F8E898083B9
:1019F0008F898183888D8283898D83837901A12C4E
:101A0000B12C412C512C32018E899F89A88DB98D22
:101A1000481659066A067B0680F5EC8DFD8DEA0DA9
:101A2000FB1DA081B181FD0101900020E9F73197F4
:101A30006F01CA1ADB0AA60160E070E0C8018E0DD2
:101A40009F1D0E94B21DF4E0EF0EF11CEC8DFD8D88
:101A5000EA0DFB1D60817181A601C8018E0D9F1DDD
:101A60000E943133EC0CFD1C8FEF481A580A680AAB
:101A7000780AE2E0AE0EB11CC7CFC701DF91CF916B
:101A80001F910F91FF90EF90DF90CF90BF90AF909C
:101A90007F906F905F904F900895EF92FF920F9319
:101AA0001F93CF93DF938C017B01DC0112962C9165
:101AB0001297FB012193CF011396ED91FC9114979E
:101AC000EF0109900020E9F72197CE1BDF0BAE0153
:101AD00060E070E00E94B21DD80113966D917C9178
:101AE0001497AE01C70105960E943133CE010596C9
:101AF000DF91CF911F910F91FF90EF900895CF92BA
:101B0000DF92EF92FF920F931F93CF93DF937C01AD
:101B10008B01DC0112968C911297FB018083139646
:101B20008C91139781831496ED91FC911597EF0199
:101B300009900020E9F72197CE1BDF0BAE0160E092
:101B400070E0C80102960E94B21DD70114966D91F3
:101B50007C911597AE01C80106960E943133CE01E3
:101B60000696F701A681B781FD0101900020E9F7F3
:101B700031976F01CA1ADB0AA60160E070E0800F9E
:101B8000911F0E94B21D2A96D70116966D917C91E5
:101B90001797A601C8018C0F9D1F0E943133CC0DF1
:101BA000DD1DD7011896ED91FC911997DF010D907D
:101BB0000020E9F711976D01CE1ADF0AA60160E057
:101BC00070E0C8018C0F9D1F0E94B21D2496F70182
:101BD00060857185A601C8018C0F9D1F0E9431335D
:101BE000C6018C0F9D1FD7011A966C911A971B96F0
:101BF0004C911B971C963C911C971D962C91F801BB
:101C0000E80FF91F60834183328323830496DF91B9
:101C1000CF911F910F91FF90EF90DF90CF9008959B
:101C20000C94BE31FC01848195810C94BE31CF931C
:101C3000DF93EC010E94120ECE01DF91CF910C9444
:101C4000BE31CF93DF93DC0116968D919C9117974F
:101C5000FB0116962D913C91179725393105ECF42F
:101C6000449114966D917C911597EB01C20FD31F8F
:101C7000488316962D913C91179731961496CD91E5
:101C8000DC911597C20FD31F48812F5F3F4F1796E6
:101C90003C932E9316974111DCCF16962D913C91D3
:101CA00017972539310534F022E030E019963C933E
:101CB0002E93189714962D913C911597820F931F90
:101CC000DF91CF9108950C94210E41110C94210EB7
:101CD000CB01089508958EBD00000DB407FEFDCF21
:101CE0008EB50895CF92DF92EF92FF920F931F93DC
:101CF000CF93DF936C017A018B01C0E0D0E0CE1569
:101D0000DF0581F0D8016D918D01D601ED91FC9137
:101D10000190F081E02DC6011995892B11F02196D3
:101D2000EECF7E01C701DF91CF911F910F91FF9000
:101D3000EF90DF90CF9008950E942C333FB7F89436
:101D40008091A7039091A803A091A903B091AA0341
:101D500026B5A89B05C02F3F19F00196A11DB11D06
:101D60003FBFBA2FA92F982F8827820F911DA11D41
:101D7000B11DBC01CD0142E0660F771F881F991F7E
:101D80004A95D1F708952FB7F8946091A303709105
:101D9000A4038091A5039091A6032FBF08951F92DD
:101DA0000F920FB60F9211242F933F938F939F930F
:101DB000AF93BF938091A3039091A403A091A50337
:101DC000B091A6033091A20323E0230F2D3720F416
:101DD0000196A11DB11D05C026E8230F0296A11D85
:101DE000B11D2093A2038093A3039093A403A09317
:101DF000A503B093A6038091A7039091A803A09197
:101E0000A903B091AA030196A11DB11D8093A70358
:101E10009093A803A093A903B093AA03BF91AF9195
:101E20009F918F913F912F910F900FBE0F901F9018
:101E30001895CF92DF92EF92FF92FC01C12C92E1B4
:101E4000D92E9AE7E92EF12C20E04C155D056E05A0
:101E50007F0540F4F694E794D794C7942F5F26301B
:101E6000A1F727E091E09227292F286B2695208360
:101E700091709183FF90EF90DF90CF900895CF9273
:101E8000DF92EF92FF926B017C0120E030E0A9012C
:101E90000E945A2F87FF0DC020E030E040E05EEB4B
:101EA000C701B6010E94B93020E030E84FEF53EC93
:101EB0000CC020E030E040E05EE3C701B6010E94C4
:101EC000B93020E030E84FEF53E40E94B9300E946F
:101ED000D12FCB01FF90EF90DF90CF900C947B241B
:101EE000FC018CE392E09183808380E392E0938312
:101EF0008283148215821682178284E292E091878F
:101F0000808782E293E093878287148615861686FF
:101F10001786108A118A128A138A158A148A168AD9
:101F2000178A108E118E128E138E148E158E13A298
:101F300012A208950F931F93CF93DF93CDB7DEB70F
:101F40002A970FB6F894DEBF0FBECDBF8C0188E193
:101F500092E09A8389831B821C821D821E821F82CB
:101F6000188619861A86D801ED91FC910190F081AE
:101F7000E02DAE014F5F5F4F6AE070E0C801199538
:101F80000E94C30EF80160877187828793872A9623
:101F90000FB6F894DEBF0FBECDBFDF91CF911F917A
:101FA0000F910895CF93DF9300D01F921F92CDB76A
:101FB000DEB72CE032E03A83298323E02B837D8354
:101FC0006C83DC01ED91FC910190F081E02DAE017C
:101FD0004F5F5F4F67E070E019950F900F900F9083
:101FE0000F900F90DF91CF910895362F90E0FC0174
:101FF000E65FFA4F4491FC01EC53FB4F2491FC0146
:10200000E258FB4F9491992309F46CC0442309F4DE
:1020100055C050E0FA013197E231F10508F04EC0A9
:102020008827EE58FF4F8F4F0C94D12E809180005F
:102030008F7707C0809180008F7D03C080918000E2
:10204000877F809380003AC084B58F7702C084B5C3
:102050008F7D84BD33C08091B0008F7703C08091A5
:10206000B0008F7D8093B00029C0809190008F7761
:1020700007C0809190008F7D03C080919000877F82
:10208000809390001BC08091A0008F7707C0809143
:10209000A0008F7D03C08091A000877F8093A00067
:1020A0000DC0809120018F7707C0809120018F7D26
:1020B00003C080912001877F80932001E92FF0E009
:1020C000EE0FFF1FEC59FB4FA591B4919FB7F89409
:1020D000311104C08C912095282302C0EC912E2B45
:1020E0002C939FBF0895CF92DF92EF92FF920F93B0
:1020F0001F93CF93DF931F921F92CDB7DEB7E82EC9
:10210000F62E6A0180914E0B062F10E08823E1F134
:1021100080914F0B882349F04091550B5091560BFD
:102120006091570B7091580B08C04091510B509122
:10213000520B6091530B7091540BCE0101960E948B
:10214000190F89819A810E94012060E080914D0BD6
:102150000E94F50F8091500B8E290E946B0E760124
:102160000C0D1D1DE016F10639F080E00E946B0E8B
:10217000D7018D937D01F6CF61E080914D0B0E94D8
:10218000F50F0E9400204AC08091420B91E090938D
:10219000300480932F0410922E0410922D0480910D
:1021A000430B9091440BDC01ED91FC910190F08187
:1021B000E02D6E2D199560E08091430B9091440BBA
:1021C0000E9436216F2D013208F060E28091420BAF
:1021D0000E948F23109232048093310490E09093F8
:1021E0004A0B8093490B80179107A9F476010C0DD7
:1021F0001D1DE016F10691F08091430B9091440B68
:10220000DC01ED91FC910284F385E02D1995F70135
:1022100081937F01EECF8FEF9FEF02C081E090E0CE
:102220000F900F90DF91CF911F910F91FF90EF9042
:10223000DF90CF9008952F923F924F925F926F92CE
:102240007F928F929F92AF92BF92CF92DF92EF9246
:10225000FF920F931F93CF93DF93CDB7DEB76A97AB
:102260000FB6F894DEBF0FBECDBF81E080934F0B59
:102270004BE55BE065E18091910C0E94731097FD46
:10228000DCC2A0905B0BB0905C0BBA24AB24BA24E8
:10229000B092710BA092700BC0905D0BD0905E0B52
:1022A000DC24CD24DC24D092730BC092720BE0901E
:1022B0005F0BF090600BFE24EF24FE24F092750B70
:1022C000E092740B6091610B7091620B362F272F97
:1022D0003A8329833093830B2093820B8090630B86
:1022E0009090640B9824892498249092770B809284
:1022F000760B0091650B1091660B102701271027B4
:102300001093790B0093780B4091670B5091680BF9
:102310005427452754275A8F498F50937B0B40935E
:102320007A0B8091690B90916A0B9C838B839093BD
:102330007D0B80937C0B20916B0B30916C0B3E835B
:102340002D8330937F0B20937E0B40916D0B50912A
:102350006E0B58874F835093810B4093800B809175
:10236000770C9091780C9A8789872091790C30911D
:102370007A0C3C872B8740917B0C50917C0C5E87BC
:102380004D874090AD0B5090AE0B6090AF0B7090AE
:10239000B00BA89EB001A99E700DB89E700D1124BF
:1023A000C29EC001C39E900DD29E900D1124680F55
:1023B000791FE49EC001E59E900DF49E900D1124BE
:1023C000680F791F072E000C880B990B0E940930AB
:1023D000A30192010E94B93020910E0C30910F0C94
:1023E0004091100C5091110C0E94ED2E20911A0C6E
:1023F00030911B0C40911C0C50911D0C0E94B93067
:102400006093840B7093850B8093860B9093870B5E
:1024100080917D0C90917E0C988B8F8720917F0C02
:102420003091800C3A8B298B4091810C5091820C19
:102430005C8B4B8BA89EB001A99E700DB89E700D51
:102440001124C29EC001C39E900DD29E900D1124F6
:10245000680F791FE49EC001E59E900DF49E900DDB
:102460001124680F791F072E000C880B990B0E940E
:102470000930A30192010E94B9302091120C3091D1
:10248000130C4091140C5091150C0E94ED2E2091CC
:102490001E0C30911F0C4091200C5091210C0E9479
:1024A000B9306093880B7093890B80938A0B90935B
:1024B0008B0B8091830C9091840C9E8B8D8B209143
:1024C000850C3091860C388F2F8B2090870C3090A4
:1024D000880CAC01A49EC001A59E900DB49E900DE9
:1024E0001124C29EB001C39E700DD29E700D1124A6
:1024F000680F791FE29C9001E39C300DF29C300D37
:102500001124620F731F072E000C880B990B0E9479
:102510000930A30192010E94B9302091160C30912C
:10252000170C4091180C5091190C0E94ED2E20911F
:10253000220C3091230C4091240C5091250C0E94C8
:10254000B93060938C0B70938D0B80938E0B9093AE
:102550008F0BC090B10BD090B20BE090B30BF0900A
:10256000B40B29853A85829EC001839E900D929E70
:10257000900D11244B855C85049FB001059F700D63
:10258000149F700D1124680F791F898D9A8D4D85C8
:102590005E85849F9001859F300D949F300D11249E
:1025A000620F731F072E000C880B990B0E940930D5
:1025B000A70196010E94B9302091DE0B3091DF0B0C
:1025C0004091E00B5091E10B0E94ED2E6093900B37
:1025D0007093910B8093920B9093930B8F859889B6
:1025E000889EB001899E700D989E700D11242989D6
:1025F0003A89029FC001039F900D129F900D1124F4
:10260000680F791F498D5A8D2B893C89429FC001E3
:10261000439F900D529F900D1124680F791F072E34
:10262000000C880B990B0E940930A70196010E94AB
:10263000B9302091E20B3091E30B4091E40B5091C3
:10264000E50B0E94ED2E6093940B7093950B809395
:10265000960B9093970B4D895E89849EC001859E51
:10266000900D949E900D11242F89388D029FB001FA
:10267000039F700D129F700D1124680F791F498DF3
:102680005A8D429D9001439D300D529D300D112475
:10269000620F731F072E000C880B990B0E940930E4
:1026A000A70196010E94B9302091E60B3091E70B0B
:1026B0004091E80B5091E90B0E94ED2E6093980B2E
:1026C0007093990B80939A0B90939B0B2B813C8179
:1026D000B901330F880B990B0E9409302091B50B7B
:1026E0003091B60B4091B70B5091B80B0E94B930A6
:1026F00020915B0C30915C0C40915D0C50915E0C14
:102700000E94ED2E2091670C3091680C4091690C6D
:1027100050916A0C0E94B93060939C0B70939D0B92
:1027200080939E0B90939F0B4D815E81BA01550F54
:10273000880B990B0E9409302091B90B3091BA0B8C
:102740004091BB0B5091BC0B0E94B93020915F0CA3
:102750003091600C4091610C5091620C0E94ED2E02
:1027600020916B0C30916C0C40916D0C50916E0C63
:102770000E94B9306093A00B7093A10B8093A20BC1
:102780009093A30B2F813885B901330F880B990BD8
:102790000E9409302091BD0B3091BE0B4091BF0BC0
:1027A0005091C00B0E94B9302091630C3091640CA1
:1027B0004091650C5091660C0E94ED2E20916F0C9B
:1027C0003091700C4091710C5091720C0E94B93094
:1027D0006093A40B7093A50B8093A60B9093A70B0B
:1027E000C090C50BD090C60BE090C70BF090C80B03
:1027F00049815A81BA01550F880B990B0E94093003
:10280000A70196010E94ED2E2091C10B3091C20BC1
:102810004091C30B5091C40B0E945F2FA7019601FA
:102820000E94EE2E6093A80B7093A90B8093AA0BC5
:102830009093AB0B81E090E002C08FEF9FEF6A9620
:102840000FB6F894DEBF0FBECDBFDF91CF911F91C1
:102850000F91FF90EF90DF90CF90BF90AF909F903F
:102860008F907F906F905F904F903F902F90089542
:10287000CF93DF9390E0FC01EC53FB4F2491FC01DC
:10288000E258FB4F8491882361F190E0880F991FF3
:10289000FC01E65BFB4FC591D491FC01EC59FB4F69
:1028A000A591B491611109C09FB7F89488812095D2
:1028B00082238883EC912E230BC0623061F49FB792
:1028C000F8948881322F309583238883EC912E2BC6
:1028D0002C939FBF06C08FB7F894E8812E2B2883D6
:1028E0008FBFDF91CF9108958F929F92AF92BF9249
:1028F000CF92DF92EF92FF926B017C010E949E0EBD
:102900004B015C01C114D104E104F104F1F00E9417
:102910009E0EDC01CB0188199909AA09BB09883EE2
:102920009340A105B10570F321E0C21AD108E10876
:10293000F10888EE880E83E0981EA11CB11CC1141A
:10294000D104E104F10419F7DDCFFF90EF90DF909F
:10295000CF90BF90AF909F908F9008950F931F934B
:10296000CF93DF931F921F92CDB7DEB7082F162F9C
:1029700080914E0B882319F14091510B5091520BCD
:102980006091530B7091540BCE0101960E94190F68
:1029900089819A810E94012060E080914D0B0E9404
:1029A000F50F802F0E946B0E812F0E946B0E61E04D
:1029B00080914D0B0E94F50F0E9400202AC080914B
:1029C000420B91E09093300480932F0410922E04D8
:1029D00010922D048091430B9091440BDC01ED91FA
:1029E000FC910190F081E02D602F19958091430BAF
:1029F0009091440BDC01ED91FC910190F081E02D70
:102A0000612F199561E08091430B9091440B0E94D6
:102A100036216AE070E080E090E00E9474144BE59B
:102A20005BE061E0802F0E94731080915B0B1817B0
:102A300019F08FEF9FEF02C081E090E00F900F90B0
:102A4000DF91CF911F910F910895CF93DF93EC0108
:102A500010924F0B8230910579F128F4009759F0CC
:102A60000197F9F055C084309105E1F180F10597A7
:102A700009F443C04DC06091A00C80919F0C0E944E
:102A8000AE1497FF03C08FEF9FEF48C06091A70C73
:102A90008091A60C0E94AE1497FF3AC08EEF9FEF74
:102AA0003DC06091A10C80919F0C0E94AE1497FDD7
:102AB000EACF6091A80CECCF6091A20C80919F0CA2
:102AC0000E94AE1497FDDFCF6091A90CE1CF609119
:102AD000A30C80919F0C0E94AE1497FDD4CF6091FF
:102AE000AA0CD6CF6091A40C80919F0C0E94AE14CA
:102AF00097FDC9CF6091AB0CCBCF6091A50C8091B5
:102B00009F0C0E94AE1497FDBECF6091AC0CC0CF5D
:102B1000D093CE0BC093CD0B81E090E0DF91CF91AD
:102B200008950F931F93CF93DF93D82FC62F8A0159
:102B30006091D20C8091C40C682B8091BF0C0E94D4
:102B4000AE1497FD21C06D2F8091C00C0E94AE1471
:102B500097FD1DC06091C30C6C2B8091C20C0E942C
:102B6000AE1497FD17C061E070E080E090E00E9435
:102B70007414A8016C2F8091940C0E947310909390
:102B80005A0B8093590B08C08FEF9FEF05C08EEF53
:102B90009FEF02C08DEF9FEFDF91CF911F910F91BB
:102BA0000895CF93DF93D82FC62F6091D20C8091D8
:102BB000BF0C0E94AE1497FD26C06D2F8091C00CF3
:102BC0000E94AE1497FD22C06C2F8091C10C0E9410
:102BD000AE1497FD1EC06091C30C61608091C20C61
:102BE0000E94AE1497FD18C04BE55BE061E08D2FAD
:102BF0000E94911597FD13C080915B0BC81791F04F
:102C00008AEF9FEF11C08FEF9FEF0EC08EEF9FEF07
:102C10000BC08DEF9FEF08C08CEF9FEF05C08BEFCF
:102C20009FEF02C081E090E0DF91CF910895CF93B4
:102C3000C82F10924F0B63E18091AD0C0E94AE142F
:102C400097FD44C06091D50C8091D40CCA30C0F07F
:102C50000E94D11597FF03C08EEF9FEF3CC064E642
:102C600070E080E090E00E9474146091D60C809136
:102C7000D40C0E94D11597FF10C08DEF9FEF2BC091
:102C80000E94D11597FDE8CF64E670E080E090E007
:102C90000E9474146091D70CEACF64E670E080E083
:102CA00090E00E9474144BE55BE067E08091D30CE8
:102CB0000E9491156C2F8091AD0C0E94AE1497FD6F
:102CC00008C0C093CF0B81E090E005C08FEF9FEF6D
:102CD00002C08CEF9FEFCF9108958E579B4FFC0160
:102CE0008081089583E995E0089585E895E0089549
:102CF000FC01848595850895DB012C91FC012187D9
:102D00000284F385E02D0796199484E695E00895F2
:102D100080E595E00895FC0187A190A508950F93A3
:102D20001F93CF93DF938C01EC012796CE010E9475
:102D30004205D8019596ED91FC919697CE01DF91D1
:102D4000CF911F910F911994AF92BF92CF92DF92C2
:102D5000EF92FF920F931F93CF93DF936436710529
:102D60003CF0FC01EE57FB4F2081222309F462C0A6
:102D7000DA016B01EC01BC01655E7D4FED91FC91C8
:102D80000190F081E02DCA0119958C017E012CEE95
:102D9000E21A2DEFF20A2FEFD7012C93FE01EB5E22
:102DA000FD4F2EEF208331968083319690833196AC
:102DB000980F909590833196C0821696DC9245E0EC
:102DC00050E020E030E0C80107964817590730F47A
:102DD0006191260F311D4F5F5F4FF7CF085F1F4F87
:102DE0008C0F9D1FFC01EC5EFD4F20952083013070
:102DF000B2E01B07A8F468015701C5018E199F09AD
:102E000080179107CCF48A819B81F50161915F0164
:102E1000DC01ED91FC910190F081E02D1995EDCF51
:102E20006AEE72E0CE010E94D20FCC24CA94DD2457
:102E3000DA9402C0C12CD12CC601DF91CF911F9131
:102E40000F91FF90EF90DF90CF90BF90AF900895DB
:102E5000CF93DF9380E00E94D123C5EBD3E0BC0188
:102E600080E090E00E9407302FE632E143E850E432
:102E70000E94B93020E030EE4FEF54E40E945F2F03
:102E800020E030E040E251E40E945F2F2AE037ED7D
:102E900043EA5BE30E945F2F688379838A839B8385
:102EA00081E00E94D123BC0180E090E00E940730C5
:102EB0002FE632E143E850E40E94B93020E030EEE2
:102EC0004FEF54E40E945F2F2DEC3CEC4CEC5DE3A3
:102ED0000E945F2F6C837D838E839F8382E00E949C
:102EE000D123BC0180E090E00E9407302FE632E160
:102EF00043E850E40E94B93020E030EE4FEF54E454
:102F00000E945F2F20E030E040E850E40E94B9309A
:102F1000688779878A879B87EEEFF5E0D3A3C2A302
:102F200083E090E0A0E0B0E0828F938FA48FB58F14
:102F3000E3EFF5E08781908565817681DC01ED9195
:102F4000FC910190F081E02D4EEF55E0DF91CF91A3
:102F500019944F925F926F927F92AF92BF92CF92ED
:102F6000DF92EF92FF920F931F93CF93DF93CDB732
:102F7000DEB760970FB6F894DEBF0FBECDBF0E94DC
:102F80009E0E0091FF0C1091000D2091010D3091CB
:102F9000020D2B013C01401A510A620A730A609328
:102FA000FF0C7093000D8093010D9093020D60E073
:102FB0008091F20C0E94F50F80E60E946B0E8E014C
:102FC0000F5F1F4F5E0121E1A20EB11C780180E06E
:102FD0000E946B0E90E0A0E0B0E0F7018193919326
:102FE000A193B1937F01AE16BF0689F761E080918E
:102FF000F20C0E94F50FC12CD12C7601F8018191C1
:103000009191A191B1918F01FE2CED2CDC2CCC245F
:10301000C80ED91EEA1EFB1EAE16BF0679F70E9427
:103020004F244091F40C5091F50C6091F60C709186
:10303000F70CD701C601841B950BA60BB70BB7FF86
:1030400007C0B095A095909581959F4FAF4FBF4F0A
:1030500081319742A105B10514F06A017B01C0924C
:10306000F40CD092F50CE092F60CF092F70CC092B2
:10307000E20CD092E30CE092E40CF092E50CC30178
:10308000B2010E9407302DEB37E346E855E30E947A
:10309000B9302B013C016093E60C7093E70C8093F0
:1030A000E80C9093E90C8091EA0C9091EB0CA091C4
:1030B000EC0CB091ED0C8C0D9D1DAE1DBF1D8093D1
:1030C000EA0C9093EB0CA093EC0CB093ED0CA301E5
:1030D00092016091EE0C7091EF0C8091F00C909148
:1030E000F10C0E94EE2E6093EE0C7093EF0C809327
:1030F000F00C9093F10C8091AF039091B003029784
:1031000009F05EC0C701B6010E94093020E230ED2F
:1031100046E958E40E945F2FA30192010E945F2FAD
:103120009B01AC016091AB037091AC038091AD0346
:103130009091AE030E94ED2E2B013C012091B10332
:103140003091B2034091B3035091B4030E94EE2E2C
:103150006B017C016093B1037093B2038093B3035E
:103160009093B40320E030E040EA50E4C301B201A0
:103170000E94B9302B013C012AE037ED43EA5BE3C2
:10318000C701B6010E94B9309B01AC01C301B20175
:103190000E94EE2E60960FB6F894DEBF0FBECDBF34
:1031A000DF91CF911F910F91FF90EF90DF90CF9023
:1031B000BF90AF907F906F905F904F900C943F0FB7
:1031C0001092B1031092B2031092B3031092B403A1
:1031D00060960FB6F894DEBF0FBECDBFDF91CF91E2
:1031E0001F910F91FF90EF90DF90CF90BF90AF9025
:1031F0007F906F905F904F9008952F923F924F92E3
:103200005F926F927F928F929F92AF92BF92CF9276
:10321000DF92EF92FF920F931F93CF93DF93CDB77F
:10322000DEB7E0970FB6F894DEBF0FBECDBF8C01BE
:103230000E94C30E2B013C01980129573B4F3E8F42
:103240002D8FF90180819181A281B381A301920127
:10325000281B390B4A0B5B0BDA01C901893F9A42E3
:10326000A105B10510F035971082480148E8841A8D
:103270004BEF940AD4018D919C91892B79F0F80140
:10328000E557FB4F80819181A281B381841595051B
:10329000A605B70518F4F401118210829801205890
:1032A0003B4F3A8F298FA80144585B4F5C8F4B8F5F
:1032B000180154E1250E311CC8018E579B4F9AA36B
:1032C00089A3D801A057BB4FB8A7AFA3F801E15716
:1032D000FB4FFAA7E9A75801F6E8AF1AFBEFBF0AC0
:1032E0002250310938A32F8FA80145575B4F5CA7A7
:1032F0004BA7D301C2014496A11DB11D8DA79EA766
:10330000AFA7B8ABD80112968D919C911397DC01B1
:10331000ED91FC910284F385E02D19959C0197FDB8
:10332000EBC2E98DFA8D80819181820F931F918389
:103330008083D4014D915C9147305105C9F4EF8DE4
:10334000F8A180819181AC014F5F5F4F5183408331
:10335000F801E80FF91F248BD5018D919C911197ED
:1033600001978D939C93892B69F688E090E033C098
:103370004115510541F52F3F310589F481E090E079
:10338000D4018D939C932DA53EA54FA558A9ABA51F
:10339000BCA52D933D934D935C931397B3CF0E949F
:1033A000C30EDC01CB0184199509A609B70906975C
:1033B000A105B10508F4A6CFF801EE57FB4F108226
:1033C0008EEF9FEFC1C241305105A9F42E3F310568
:1033D00031F482E090E0F4019183808393CFD401B3
:1033E0001D921C92E9A1FAA1808181118BCFC801A5
:1033F0000E949A0F87CF4230510589F4D5012D9351
:103400003C93EF8DF8A11182108283E090E0D4010B
:103410008D939C93E98DFA8D3183208373CF433054
:10342000510569F4322F2227D5018D919C91119776
:10343000280F391F2D933C9384E090E0CCCF44308B
:10344000510589F460E071E00E94BD2E8F3F910527
:1034500031F485E090E0D4018D939C9353CFF40137
:10346000118210824FCF4530510571F4AB8DBC8D68
:103470002D933C9386E090E0F40191838083A98DA5
:10348000BA8D2D933C933ECF4630510599F4322F9F
:103490002227EB8DFC8D80819181280F391F31838C
:1034A000208387E090E0D4018D939C93F501808187
:1034B000918159CF4830510509F024CFD4011D9294
:1034C0001C9260E071E00E94BD2E8F3F910509F0D3
:1034D00019CFEB8DFC8D80819181009709F03EC161
:1034E000C8010E949A0F80E692E09A8389831C8229
:1034F0001B8282E293E09E838D8398878F839A87D5
:1035000089871B861C861D861E866801FCEECF1AE5
:10351000FBEFDF0A78012AEBE21A2BEFF20A28E42C
:10352000222E22E0322ED601AD90BC90A114B1041F
:1035300009F474C01A8A198A388A2F861E8A1D8A4D
:1035400086E990E00E9426319C8B8B8BFC011082D7
:10355000EB56FF4F1082D50115968D919C911697D1
:103560009C838B836D917C91119712964C91CE0127
:103570000F960E94650E9E838D83D601ED91FC917E
:1035800083819481DC01ED91FC910480F581E02D33
:103590001995BC01CE010F960E94210E98878F834A
:1035A000D601ED91FC9183819481DC01ED91FC9138
:1035B0000680F781E02D1995BC01CE010F960E947F
:1035C000210E9A87898720E032E040E050E02B8787
:1035D0003C874D875E87D601ED91FC9161857285B0
:1035E000D801ED91FC910190F081E02DAE014F5F8B
:1035F0005F4FC801199589899A898130910519F41D
:1036000063E273E004C0029729F467E373E0C80142
:103610000E94D20FCE010F960E94120EB2E0CB0E86
:10362000D11CEC14FD0409F07ECF98E4A92E92E0A1
:10363000B92EF701C080D180C114D10409F473C040
:103640001A8A198AB88AAF861E8A1D8A86E990E08E
:103650000E9426319C8B8B8BDC011C92FC01EB566B
:10366000FF4F1082F601828193819C838B8364815A
:1036700075814681CE010F960E94650E9E838D83D3
:10368000D7018D919C91DC01ED91FC910480F58135
:10369000E02D1995BC01CE010F960E94210E98874E
:1036A0008F83F70180819181DC01ED91FC9106808F
:1036B000F781E02D1995BC01CE010F960E94210ED5
:1036C0009A87898720E032E040E050E02B873C87F2
:1036D0004D875E87D801ED91FC91C080D180F701C4
:1036E00080819181DC01ED91FC910280F381E02DDC
:1036F0001995AE014F5F5F4FBC01C801F6011995E6
:1037000089899A898130910519F463E273E004C0D4
:10371000029729F467E373E0C8010E94D20FCE013B
:103720000F960E94120EF2E0EF0EF11C8E149F0411
:1037300009F07FCFF801EE57FB4F81E0808331968F
:103740004082518262827382AD8DBE8D4D925D92B8
:103750006D927C9213978FEF9FEFF6C08A309105A0
:1037600009F0A1C088E192E09A8389831B821C82C0
:103770001D821E821F82188619861A860E94C30E19
:10378000F801C084D184E284F3849B01AC012C193C
:103790003D094E095F0969017A01B101CE01019627
:1037A0000E940604C701B60128EE33E040E050E075
:1037B0000E94702ECB80DC80ED80FE80C20ED31E76
:1037C000E41EF51ECB82DC82ED82FE829B01AC0101
:1037D00060E472E48FE090E00E94A12ECF80D88454
:1037E000E984FA84DC01CB018C0D9D1DAE1DBF1D4B
:1037F0008F839887A987BA870E94C30ECF80D88409
:10380000E984FA8436E3D31A35E6E30A34ECF30AA2
:1038100028EE33E040E050E00E94702E2BA33CA342
:103820004DA35EA39B01AC0160E472E48FE090E0E5
:103830000E94A12EA7019601261B370B480B590B9E
:10384000CA01B901CB80DC80ED80FE8031E0C31A73
:10385000D108E108F1082BA13CA14DA15EA1C21A3B
:10386000D30AE40AF50A20E03AEC4AE95BE30E9455
:10387000702EC20ED31EE41EF51ED8011C96CD92EA
:10388000DD92ED92FC921F97F801608B718B828B19
:10389000938B0E94C30EAD8DBE8D6D937D938D93E2
:1038A0009C9313972FCD8630910551F4B1018FA1D0
:1038B00098A50E943A0981E0E9A5FAA5808322CD66
:1038C0008B30910521F4A9A1BAA11C921BCDFC015A
:1038D000E154FE4FEE0FFF1FE00FF11F8081918139
:1038E000009709F40FCDDC01ED91FC910190F0817E
:1038F000E02DB101199506CDF801EE57FB4F8081FF
:10390000882301F17801BDE7EB1ABBEFFB0AF70151
:1039100080819181A281B381A3019201281B390B7F
:103920004A0B5B0BDA01C901853C9940A105B10541
:1039300048F0C8010E949A0FD7014D925D926D9296
:103940007C92139780E090E0E0960FB6F894DEBF8B
:103950000FBECDBFDF91CF911F910F91FF90EF90E0
:10396000DF90CF90BF90AF909F908F907F906F909F
:103970005F904F903F902F900895CF92DF92EF92FB
:10398000FF920F931F93CF93DF936C018B017A010A
:10399000EC01CF53DC4F888187FF04C0FB0111820B
:1039A000108224C02CE02C9DC0012D9D900D11246F
:1039B0002881AC01420F511D27FD5A952091A70582
:1039C00030E04217530794F42881AC01420F511D97
:1039D00027FD5A959A01FA01EE0FFF1F2E0F3F1F88
:1039E000F901E95EFA4F208126FD19C088818F5FB9
:1039F00088832CE02C9DC0012D9D900D11242881E1
:103A0000AC01420F511D27FD5A952091A70530E0CA
:103A100042175307BCF428812C3044F113C028818D
:103A2000820F911D27FD9A95FC01EE0FFF1F8E0F4F
:103A30009F1FFC01E95EFA4F808160E08F730E9456
:103A4000F50FD4CFF80180819181049680349C4990
:103A500018F480E49CE904C0F80180819181049607
:103A6000F701918380838FEF888345C0F8014081FF
:103A700051812881BC01620F711D27FD7A959B0140
:103A8000FB01EE0FFF1F2E0F3F1FF901E95EFA4FFA
:103A900021813281240F351FF70131832083288152
:103AA000AC01420F511D27FD5A959A01FA01EE0F04
:103AB000FF1F2E0F3F1FF901E95EFA4F208126FFFD
:103AC0001AC02881820F911D27FD9A95FC01EE0FE7
:103AD000FF1F8E0F9F1FFC01E95EFA4F808161E09E
:103AE0008F73DF91CF911F910F91FF90EF90DF9037
:103AF000CF900C94F50FDF91CF911F910F91FF9014
:103B0000EF90DF90CF900895CF92DF92EF92FF92E7
:103B1000FC011082118212821382DB0120E030E06E
:103B20004D9150E0022E02C0440F551F0A94E2F757
:103B3000052E000C660B770BC080D180E280F380ED
:103B40004C295D296E297F294083518362837383C9
:103B5000285F3F4F2032310519F7FF90EF90DF903B
:103B6000CF900895CF92DF92EF92FF9220E030E065
:103B70006A017B01022E04C0F694E794D794C7949F
:103B80000A94D2F7FC01C192CF01285F3F4F203247
:103B9000310571F7FF90EF90DF90CF900895FC0111
:103BA000538D448D252F30E0842F90E0821B930BA2
:103BB000541710F0CF96089501970895FC01918D48
:103BC000828D981761F0828DDF01A80FB11D5D967F
:103BD0008C91928D9F5F9F73928F90E008958FEFED
:103BE0009FEF0895FC01918D828D981731F0828DA1
:103BF000E80FF11D858D90E008958FEF9FEF0895F8
:103C0000FC01918D228D892F90E0805C9F4F821B5B
:103C100091098F73992708958AE794E00E94001E06
:103C200021E0892B09F420E0822F0895FC01848D86
:103C3000DF01A80FB11DA35ABF4F2C91848D90E0D6
:103C400001968F739927848FA689B7892C93A089B1
:103C5000B1898C91837080648C93938D848D98133B
:103C600006C00288F389E02D80818F7D80830895CE
:103C7000EF92FF920F931F93CF93DF93EC0181E0BC
:103C8000888F9B8D8C8D981305C0E889F989808178
:103C900085FD26C0F62E0B8D10E00F5F1F4F0F73B2
:103CA0001127E02E8C8DE8120CC00FB607FCFACF5E
:103CB000E889F989808185FFF5CFCE010E94161E23
:103CC000F1CF8B8DFE01E80FF11DE35AFF4FF0821B
:103CD0009FB7F8940B8FEA89FB89808180620AC0C4
:103CE0009FB7F894EE89FF896083E889F98980811C
:103CF0008370806480839FBF81E090E0DF91CF91EB
:103D00001F910F91FF90EF900895CF93DF93EC01F7
:103D1000888D8823C9F0EA89FB89808185FD05C0EB
:103D2000A889B9898C9186FD0FC00FB607FCF5CF25
:103D3000808185FFF2CFA889B9898C9185FFEDCF6D
:103D4000CE010E94161EE7CFDF91CF91089580E04B
:103D500090E0892B21F00E940C1E811125C080E08B
:103D600090E0892B41F080E090E0892B21F00E94C7
:103D7000000081111CC080E090E0892B41F080E0C0
:103D800090E0892B21F00E940000811113C080E097
:103D900090E0892BA1F080E090E0892B81F00E94D7
:103DA000000081110AC008950E940000D8CF0E942F
:103DB0000000E1CF0E940000EACF0C9400000895BB
:103DC00085ED8093BC008091BC0084FDFCCF1092F7
:103DD0007904089540910804262F30E0240F311D06
:103DE00021323105DCF4209179042430C9F4FC013E
:103DF00080E090E0861758F4309108042191DC01AE
:103E0000AA51BC4FA30FB11D2C930196F3CF809103
:103E10000804680F6093080480E0089581E0089525
:103E200082E00895089508950895E0913204809104
:103E30003104E81730F4F0E0ED5CFB4F808190E056
:103E400008958FEF9FEF089590913204809131048F
:103E5000981750F4E92FF0E0ED5CFB4F208130E043
:103E60009F5F9093320402C02FEF3FEFC901089586
:103E70008091310490E020913204821B91090895D1
:103E8000CF92DF92EF92FF920F931F93CF93DF9326
:103E90007C01CB018A0120913004222389F0EB01BF
:103EA0006B01C40ED51ECC15DD0569F06991D701F3
:103EB000ED91FC910190F081E02DC7011995F3CFB0
:103EC000642F0E94EA1EC801DF91CF911F910F91CC
:103ED000FF90EF90DF90CF900895CF93DF931F92E4
:103EE000CDB7DEB76983209130042223D1F0209131
:103EF0002D04203240F021E030E0FC0133832283A6
:103F000080E090E015C080912E04E82FF0E0EA53A5
:103F1000FC4F998190838F5F80932E0480932D04B2
:103F200005C061E0CE0101960E94EA1E81E090E0AA
:103F30000F90DF91CF910895089580E090E008956B
:103F40001F920F920FB60F9211240BB60F922F9360
:103F50003F934F935F936F937F938F939F93AF9311
:103F6000BF93EF93FF938AE794E00E94161EFF91A0
:103F7000EF91BF91AF919F918F917F916F915F91E1
:103F80004F913F912F910F900BBE0F900FBE0F904E
:103F90001F9018951F920F920FB60F9211240BB617
:103FA0000F922F938F939F93EF93FF93E0918A0447
:103FB000F0918B048081E0919004F091910482FD56
:103FC00012C09081809193048F5F8F73209194042D
:103FD000821751F0E0919304F0E0E658FB4F958F83
:103FE0008093930401C08081FF91EF919F918F9105
:103FF0002F910F900BBE0F900FBE0F901F90189532
:1040000008958CBD9DBD08951F920F920FB60F921B
:1040100011240BB60F922F933F934F935F936F939F
:104020007F938F939F93AF93BF93EF93FF93809171
:10403000B900887F803609F49CC068F5883209F49D
:104040005BC090F4803109F454C038F4882309F43B
:10405000F6C0883009F44DC0F6C0883109F44CC070
:10406000803209F45DC0EFC0803409F468C048F4C0
:10407000803309F455C0883309F0E5C08093770494
:10408000D8C0803509F44FC0883509F45DC0883444
:1040900009F0D9C0D6C0883909F4C7C0A8F4883758
:1040A00009F467C038F4883609F463C0803709F42E
:1040B00060C0C9C0883809F4B8C0803909F45FC04D
:1040C000803809F0C0C05BC0803B09F486C038F47A
:1040D000803A09F466C0883A09F47FC0B4C0803CD5
:1040E00009F4A7C0883C09F4A4C0883B09F48AC03D
:1040F000AAC08091740410C09091760480917504D8
:10410000981770F5E091760481E08E0F8093760425
:10411000F0E0ED5AFB4F80818093BB0085EC86C0B8
:10412000809377048EC0E091760481E08E0F8093B7
:1041300076048091BB00F0E0ED5AFB4F80839091B4
:104140007604809175046EC0E091760481E08E0F54
:10415000809376048091BB00F0E0ED5AFB4F8083A2
:104160008091780481116DC081E08093730484EAAA
:1041700061C083E08093790410922C04CFCF8091AA
:104180002C04803208F051C0E0912C0481E08E0FA5
:1041900080932C048091BB00F0E0E45FFB4F8083B0
:1041A000BDCF85EC8093BC001092790480912C04E3
:1041B000803230F4E0912C04F0E0E45FFB4F108299
:1041C00060912C0470E0E0910A04F0910B048CE003
:1041D00094E0199510922C0436C084E08093790401
:1041E0001092090410920804E0910604F09107046B
:1041F000199580910804811105C081E0809308041D
:104200001092E603E091090481E08E0F8093090487
:10421000F0E0EA51FC4F80818093BB00909109044B
:1042200080910804981708F479CF85E88093BC0042
:104230000AC085EC8093BC001092790404C01092EF
:1042400077040E94E01EFF91EF91BF91AF919F9183
:104250008F917F916F915F914F913F912F910F902F
:104260000BBE0F900FBE0F901F90189530912D042C
:10427000313208F04AC0809179048111FCCF9091CD
:104280002F0422E020937904609378042FEF209389
:1042900077041092760430937504E6ECF3E0A3E51E
:1042A000B4E020E0321721F041914D932F5FFACF17
:1042B0001092740420917404990F922B90937404BB
:1042C00090917304913061F410927304909174048E
:1042D0009093BB009091BC0093FDF8CF95EC01C08A
:1042E00095EE9093BC00909179049230E1F3909117
:1042F00077049F3F79F080917704803241F080917C
:104300007704803331F084E005C081E003C082E0AF
:1043100001C083E010922E0410922D0410923004FC
:104320000895109232041092310410922E041092CB
:104330002D041092790481E0809378041092730424
:1043400061E084E10E94F50F61E085E10E94F50FD4
:10435000E9EBF0E080818E7F808380818D7F808398
:1043600088E48093B80085E48093BC0082E19FE1FB
:10437000909307048093060483E19FE190930B04DC
:1043800080930A040895CF93CFB7F8948091C50322
:10439000811127C0E3EBF4E08491E9EFF4E094911C
:1043A000E82FF0E0EE0FFF1FE65BFB4FA591B49105
:1043B000EC91E92321F461E085E30E94F50F61E0CF
:1043C00085E30E9438148CB580618CBD8CB5806407
:1043D0008CBD61E084E30E94381461E083E30E94B5
:1043E00038148091C5038F5F8093C503CFBFCF91F1
:1043F00008950F931F93CF93DF93FC012081222315
:1044000009F458C0EC01878190850197C1F40E949E
:10441000C30E09891A892B893C89DC01CB01801BD9
:10442000910BA20BB30B09811A812B813C81801760
:104430009107A207B307F0F10E94C30E17C00E94B4
:104440009E0E09891A892B893C89DC01CB01801BCE
:10445000910BA20BB30B09811A812B813C81801730
:104460009107A207B30730F10E949E0E698B7A8BE9
:104470008B8B9C8B49855A856B857C858D819E8134
:10448000A0E0B0E0841B950BA60BB70B0197A1052C
:10449000B10509F418824F5F5F4F6F4F7F4F498717
:1044A0005A876B877C87EF85F889DF91CF911F91C1
:1044B0000F911994DF91CF911F910F910895CF9390
:1044C000DF93FC0127853089232BC1F0EC01878124
:1044D0009085019719F40E94C30E02C00E949E0E9F
:1044E000698B7A8B8B8B9C8B81E0888319861A86EB
:1044F0001B861C8681E090E09E878D87DF91CF919F
:1045000008951F920F920FB60F9211240BB60F92BF
:104510002F933F934F935F936F937F938F939F93CB
:10452000AF93BF93EF93FF9348E251E064E271E0F1
:1045300080E090E00E94BD1CFF91EF91BF91AF9190
:104540009F918F917F916F915F914F913F912F91AB
:104550000F900BBE0F900FBE0F901F9018951F92DB
:104560000F920FB60F9211240BB60F922F933F9319
:104570004F935F936F937F938F939F93AF93BF936B
:10458000EF93FF9348EA50E064EA70E083E090E044
:104590000E94BD1CFF91EF91BF91AF919F918F91B0
:1045A0007F916F915F914F913F912F910F900BBE33
:1045B0000F900FBE0F901F9018951F920F920FB67D
:1045C0000F9211240BB60F922F933F934F935F934B
:1045D0006F937F938F939F93AF93BF93EF93FF93CB
:1045E00048E950E064E970E082E090E00E94BD1C80
:1045F000FF91EF91BF91AF919F918F917F916F91BB
:104600005F914F913F912F910F900BBE0F900FBE76
:104610000F901F9018951F920F920FB60F921124B2
:104620000BB60F922F933F934F935F936F937F93AC
:104630008F939F93AF93BF93EF93FF9348E850E01E
:1046400064E870E081E090E00E94BD1CFF91EF9172
:10465000BF91AF919F918F917F916F915F914F919A
:104660003F912F910F900BBE0F900FBE0F901F9098
:1046700018959093FE0C8093FD0C80549A4F8033D4
:1046800024E092073CF0813527E092072CF080E58A
:1046900097E002C080E394E02091FA0C203388F484
:1046A0000297880F991F4FB7F89430E0F901EE0F89
:1046B000FF1F2E0F3F1FF901E95EFA4F928381839E
:1046C0004FBF0895CF92DF92EF92FF926B017C0172
:1046D00020E030E0A9010E945A2FF7FAF094F7F891
:1046E000F09487FF05C02EE83AEF41EC5EE304C08A
:1046F0002FE73FED41ED5EE3C701B6010E945F2F5A
:1047000020E030E048EC53E40E94B9300E94D12F01
:10471000CB01FF90EF90DF90CF900C9439239091D4
:1047200079049111FCCF91E09093790490937804EF
:104730002FEF2093770410927604260F20937504B0
:104740009093740490917404880F892B809374045F
:1047500080917304813061F4109273048091740429
:104760008093BB008091BC0083FDF8CF85EC01C035
:1047700085EE8093BC00809179048130E1F38091D3
:104780007604861710F460917604A3E5B4E0E3E3C1
:10479000F4E080E0861721F09D9191938F5FFACF2E
:1047A0000895FF920F931F93CF93DF936091E00CD6
:1047B0007091E10C813059F038F0823059F083303B
:1047C00061F0636871600BC06368716408C06368FE
:1047D000716505C06368716602C063687167EB014B
:1047E000D0688091DD0CFF24F394F0923004809324
:1047F0002F0410922E0410922D0461E086E39BE0BA
:104800000E946D1F6D2F86E39BE00E946D1F6C2F31
:1048100086E39BE00E946D1F61E086E39BE00E94BF
:1048200036216091DE0C70E080E090E00E9474140C
:10483000C091DD0CF0923004C0932F0410922E042E
:1048400010922D0460E086E39BE00E946D1F61E002
:1048500086E39BE00E94362162E08C2F0E948F232A
:10486000109232048093310486E39BE00E94241F5F
:10487000C82F86E39BE00E94241F1C2F00E09801B4
:10488000282BC9010090DF0C02C0969587950A94E9
:10489000E2F7DF91CF911F910F91FF900895CF9391
:1048A000DF93C2EFDCE060E088810E94F50F88E9C9
:1048B0000E946B0E80E00E946B0E80E00E946B0EE7
:1048C00080E00E946B0E80E00E946B0E61E08881A8
:1048D0000E94F50F8BE891E00197F1F760E0888185
:1048E0000E94F50F80EE0E946B0E61E08881DF91DF
:1048F000CF910C94F50FCF93DF93009749F460E0CC
:1049000086E00E94F50F1092F90C1092F80C37C057
:10491000EC01C11582E0D80714F0CFEFD1E0C1302F
:104920008EEFD80714F4C1E0DEEF8091F80C90917F
:10493000F90C892B41F461E086E00E94F50F8BE4CD
:1049400090E00197F1F7D093F90CC093F80CD7FFE2
:1049500002C061E001C060E08AE20E94F50F82EAD5
:104960008093A00089E08093A100D7FF03C0D19578
:10497000C195D1092197D093A900C093A800DF91D8
:10498000CF910895789484B5826084BD84B58160A8
:1049900084BD85B5826085BD85B5816085BD80910A
:1049A0006E00816080936E00109281008091810082
:1049B000826080938100809181008160809381007A
:1049C000809180008160809380008091B10084603C
:1049D0008093B1008091B00081608093B00080919D
:1049E000910082608093910080919100816080931A
:1049F0009100809190008160809390008091A1004F
:104A000082608093A1008091A10081608093A100C9
:104A10008091A00081608093A0008091210182603C
:104A200080932101809121018160809321018091F7
:104A3000200181608093200180917A0084608093BE
:104A40007A0080917A00826080937A0080917A0067
:104A5000816080937A0080917A00806880937A00E8
:104A60001092C10080E092ECA1E0B0E080938C064F
:104A700090938D06A0938E06B0938F06E0918A06E0
:104A8000F0918B06A089B18982E08C93A485B585CD
:104A90001C92A685B78580E18C93108EA489B58978
:104AA00086E08C93A289B3898C9180618C93A289D2
:104AB000B3898C9188608C93A289B3898C9180682A
:104AC0008C930288F389E02D80818F7D8083109202
:104AD000010B1092000B1092030B1092020B10921C
:104AE000070B1092060B1092050B1092040BAEEC04
:104AF000BAE0FD0180E090E021913191232B81F417
:104B0000FC01EE0FFF1FE253F54F2AE736E0318339
:104B100020838C599F4F90937D0680937C0604C020
:104B200001968931910541F780E090E02D913D910A
:104B3000232B81F4FC01EE0FFF1FE253F54F21E51B
:104B400036E0318320838C599F4F90935406809395
:104B5000530604C001968931910541F7ACE9BAE0EA
:104B6000FD0180E090E021913191232BB1F4FC0113
:104B7000EE0FFF1FE456F54F22E236E0318320832B
:104B800083589F4F909328068093270688E896E0E5
:104B900090932A068093290604C0019689319105D5
:104BA00011F780E090E02D913D91232BB1F4FC01B1
:104BB000EE0FFF1FE456F54F23EF35E031832083DE
:104BC00083589F4F9093F9058093F80588E896E005
:104BD0009093FB058093FA0504C0019689319105F5
:104BE00011F78091FA0C803308F052C061E089E03F
:104BF0000E9438148091FA0CE82FF0E09F01220FF8
:104C0000331FE20FF31FE95EFA4F9081907C9960A9
:104C100090831092FB0C1092FC0C6CE00E94B12E61
:104C20009CE0899FB001112440E050E09B01240FDB
:104C3000351FF901EE0FFF1F2E0F3F1FF901E95E2F
:104C4000FA4F908196FD17C04F5F5F4F4C30510572
:104C500069F7813009F06BC11092800082E0809387
:104C600081001092850010928400B19A80916F00AB
:104C7000826080936F00E091FA0CF0E0CF01880F22
:104C8000991FE80FF91FE95EFA4F808180648083E5
:104C900080E090E00E94392361E08AE20E943814AB
:104CA00061E086E00E94381460E086E00E94F50F23
:104CB0001092F90C1092F80C8DE28093F20C86E1C0
:104CC0008093F30C61E08DE20E94381460E08091E3
:104CD000F30C0E94381461E08091F20C0E94F50FF1
:104CE0000E94C321CBECD7E0CE010197F1F760E041
:104CF0008091F20C0E94F50F88E80E946B0E83E011
:104D00000E946B0E61E08091F20C0E94F50F2197DA
:104D1000F1F70E944F2480E092E09093E10C8093A1
:104D2000E00C86E39BE00E94912180914E0B88234A
:104D300079F010924F0B61E080914D0B0E94381476
:104D400061E080914D0B0E94F50F0E94C3211FC0AE
:104D50008091430B9091440B0E9491212091450B2F
:104D60003091460B4091470B5091480B60E074E244
:104D700084EF90E00E94702EDA01C9014097A109EA
:104D8000B109B695A795979587958093B8006091DE
:104D9000B70C8091B40C0E94AE1497FD5AC060917C
:104DA000BC0C8091BB0C0E94AE1497FD52C0609168
:104DB000BD0C8091BE0C0E94AE1497FD4AC060915C
:104DC000D50C8091D40C0E94D1156091B60C8091C5
:104DD000B40C0E94AE1461E070E080E090E00E94AC
:104DE00074146091DA0C8091D90C0E94D1156091F5
:104DF000B70C8091B40C0E94AE1497FD2AC04BE50D
:104E00005BE061E08091CA0C0E94731097FD04C0C2
:104E100080915B0B813769F04BE55BE061E080914D
:104E2000CA0C0E94731097FD14C080915B0B8337EE
:104E300081F46091B90C8091B80C0E94AE1497FD7A
:104E400008C06091990C8091950C0E94AE1497FF58
:104E50009AC010924F0B6091960C8091950C0E9415
:104E6000AE1497FD1EC06091890C70918A0C8091E0
:104E70008B0C90918C0C9B01AC010E94EE2E20E0DB
:104E80003FEF4FEF56E40E945F2F6093AD0B70939E
:104E9000AE0B8093AF0B9093B00B1092CA0B109295
:104EA000C90B10924F0B60919B0C80919A0C0E9441
:104EB000AE1497FD1AC02AEF30E04AEF5BE3609131
:104EC0008D0C70918E0C80918F0C9091900C0E94A3
:104ED000B9306093B10B7093B20B8093B30B909386
:104EE000B40B1092CC0B1092CB0B82E090E00E949E
:104EF000251589E00E9417168AED95E00E945F2231
:104F000081EC95E00E945F2288EA95E00E945F2292
:104F100081EC95E00E94F9218AED95E00E94F9214B
:104F200088EA95E00E94F9210E94A71EF1CF823005
:104F300061F410929000809391001092950010926D
:104F4000940088BB8093710096CE833069F41092F0
:104F5000A00082E08093A1001092A5001092A4000E
:104F600089BB8093720087CE811185CE109220017B
:104F700082E08093210110922501109224018ABBC6
:104F80008093730078CE20E030E040E851E46091F7
:104F9000890C70918A0C80918B0C90918C0C0E94E2
:104FA000B93020E03FEF4FEF56E40E945F2F60934F
:104FB000AD0B7093AE0B8093AF0B9093B00BC3E02F
:104FC000D0E0D093CA0BC093C90B60919E0C809126
:104FD0009A0C0E94AE1497FD3CCF2AEF30E04AE7CE
:104FE0005DE360918D0C70918E0C80918F0C90918F
:104FF000900C0E94B9306093B10B7093B20B809308
:10500000B30B9093B40BD093CC0BC093CB0B6091AC
:10501000A00C80919F0C0E94AE1497FD1ACF609156
:10502000A70C8091A60C0E94AE1497FD12CF10928F
:10503000CE0B1092CD0B60E08091AD0C0E94AE14AF
:1050400097FD07CF1092CF0B6091BC0C8091BB0CE9
:105050000E94AE1497FDFDCE6091BD0C8091BE0CF8
:105060000E94AE1497FDF5CE4BE55BE061E08091C8
:10507000DC0C0E94911597FDECCE80915B0B88347F
:1050800009F0E7CE6091D50C8091D40C0E94D11527
:1050900097FDDFCE64E670E080E090E00E9474143B
:1050A0006091D80C8091D40C0E94D11597FDD1CE7F
:1050B00064E670E080E090E00E9474144BE55BE0F1
:1050C00063E08091DB0C0E94911560915B0B70E0B6
:1050D00080E090E00E94073020E030E040E053E4C0
:1050E0000E94ED2E20E030E040E85BE30E94B93002
:1050F00020E030E040E85FE30E94EE2E20E030E860
:1051000049E955E40E94B93020E030EF4FEF56E412
:105110000E945F2F6093B50B7093B60B8093B70B13
:105120009093B80B60915C0B70E080E090E00E947F
:10513000073020E030E040E053E40E94ED2E20E014
:1051400030E040E85BE30E94B93020E030E040E826
:105150005FE30E94EE2E20E030E849E955E40E942A
:10516000B93020E030EF4FEF56E40E945F2F60939C
:10517000B90B7093BA0B8093BB0B9093BC0B6091EF
:105180005D0B70E080E090E00E94073020E030E0AE
:1051900040E053E40E94ED2E20E030E040E85BE385
:1051A0000E94B93020E030E040E85FE30E94EE2E3C
:1051B00020E030E849E955E40E94B93020E030EFC2
:1051C0004FEF56E40E945F2F6093BD0B7093BE0BB0
:1051D0008093BF0B9093C00B6091D50C8091D40C41
:1051E0000E94D11597FD35CE64E670E080E090E036
:1051F0000E9474146091D70C8091D40C0E94D11538
:1052000097FD27CE64E670E080E090E00E94741481
:105210006091B70C8091B40C0E94AE1497FD19CE2A
:105220004BE55BE067E08091D30C0E9491151092F2
:105230004F0B60919B0C80919A0C0E94AE1497FDCD
:1052400008CE2AEF30E04AEF5BE360918D0C70915D
:105250008E0C80918F0C9091900C0E94B9306093CD
:10526000B10B7093B20B8093B30B9093B40B10926D
:10527000CC0B1092CB0B83E090E00E94251597FD9C
:10528000E8CD83E10E94171697FDE3CD1092D20B73
:105290001092D30B1092D40B1092D50B1092D60B08
:1052A0001092D70B1092D80B1092D90B1092DA0BE8
:1052B0001092DB0B1092DC0B1092DD0BC0E0D0E003
:1052C0008091D00B9091D10BC817D90708F08CC0F2
:1052D0000E941B116091D00B7091D10B80E090E087
:1052E0000E9407306B017C012091DE0B3091DF0BB7
:1052F0004091E00B5091E10B6091900B7091910BFC
:105300008091920B9091930B0E94EE2EA701960133
:105310000E945F2F2091D20B3091D30B4091D40B80
:105320005091D50B0E94EE2E6093D20B7093D30B4D
:105330008093D40B9093D50B2091E20B3091E30B2B
:105340004091E40B5091E50B6091940B7091950B9B
:105350008091960B9091970B0E94EE2EA7019601DB
:105360000E945F2F2091D60B3091D70B4091D80B24
:105370005091D90B0E94EE2E6093D60B7093D70BF1
:105380008093D80B9093D90B2091E60B3091E70BCB
:105390004091E80B5091E90B6091980B7091990B3B
:1053A00080919A0B90919B0B0E94EE2EA701960183
:1053B0000E945F2F2091DA0B3091DB0B4091DC0BC8
:1053C0005091DD0B0E94EE2E6093DA0B7093DB0B95
:1053D0008093DC0B9093DD0B64E170E080E090E063
:1053E0000E94741421966CCF8091D20B9091D30BB4
:1053F000A091D40BB091D50B8093DE0B9093DF0B73
:10540000A093E00BB093E10B8091D60B9091D70B5A
:10541000A091D80BB091D90B8093E20B9093E30B42
:10542000A093E40BB093E50B8091DA0B9091DB0B2A
:10543000A091DC0BB091DD0B8093E60B9093E70B12
:10544000A093E80BB093E90BC091CB0BD091CC0BA0
:1054500010924F0BC130D105A9F038F0C230D10500
:10546000F1F0C330D10541F145C060919B0C8091B2
:105470009A0C0E94AE1497FDECCC2AEF30E04AEF74
:105480005BE326C060919C0C80919A0C0E94AE1444
:1054900097FDDFCC2AEF30E04AE75CE319C060916A
:1054A0009D0C80919A0C0E94AE1497FDD2CC2AEFED
:1054B00030E04AEF5CE30CC060919E0C80919A0C46
:1054C0000E94AE1497FDC5CC2AEF30E04AE75DE3B9
:1054D00060918D0C70918E0C80918F0C9091900C3E
:1054E0000E94B9306093B10B7093B20B8093B30BF1
:1054F0009093B40BD093CC0BC093CB0B8091CD0B7E
:105500009091CE0B0E94251597FDA3CC8091CF0BD7
:105510000E9417169ECC0F931F9310927D04109239
:105520007C0488EE93E0A0E0B0E080937E0490934A
:105530007F04A0938004B09381042CE632E0309382
:105540007B0420937A0425EC30E030938704209389
:10555000860424EC30E0309389042093880420EC06
:1055600030E030938B0420938A0421EC30E03093B8
:105570008D0420938C0422EC30E030938F04209330
:105580008E0426EC30E03093910420939004109226
:105590009304109294041092950410929604109221
:1055A000390B1092380B80933A0B90933B0BA093DE
:1055B0003C0BB0933D0B8EE792E09093370B8093BA
:1055C000360B0E949E0E6093FF0C7093000D80932B
:1055D000010D9093020D8091A7058033A0F491E016
:1055E000980F9093A7058093FA0C90E0FC01EE0FC2
:1055F000FF1F8E0F9F1FFC01E95EFA4F88EB9BE0B7
:105600009283818303C08FEF8093FA0C1092F40C85
:105610001092F50C1092F60C1092F70C1092E20C0E
:105620001092E30C1092E40C1092E50C1092E60C30
:105630001092E70C1092E80C1092E90C1092EA0C10
:105640001092EB0C1092EC0C1092ED0C1092EE0CF0
:105650001092EF0C1092F00C1092F10C88E48093F1
:10566000DD0C81E08093DE0CE4E0E093DF0C10922F
:10567000E10C1092E00C40E85AE166E070E04093E3
:10568000450B5093460B6093470B7093480B90E883
:105690009093500B40E452E46FE070E04093510B64
:1056A0005093520B6093530B7093540B40EC51EE9C
:1056B00064EE70E04093550B5093560B6093570B7C
:1056C0007093580B4CE55FEE66EA73E44093C10BB0
:1056D0005093C20B6093C30B7093C40B40E050E037
:1056E00068EA71E44093C50B5093C60B6093C70BF7
:1056F0007093C80B24E630E03093D10B2093D00B8D
:1057000040E050E060E87FE340931A0C50931B0C9C
:1057100060931C0C70931D0C40931E0C50931F0C37
:105720006093200C7093210C4093220C5093230C17
:105730006093240C7093250C28EE33E03093270CF3
:105740002093260C0AE919E929E93EE30093280C85
:105750001093290C20932A0C30932B0C28E02093D3
:105760002C0C4093670C5093680C6093690C7093F9
:105770006A0C40936B0C50936C0C60936D0C70939F
:105780006E0C40936F0C5093700C6093710C70937F
:10579000720C1092780C1092770C41E050E050930C
:1057A0007A0C4093790C10927C0C10927B0C5093E5
:1057B0007E0C40937D0C1092800C10927F0C109206
:1057C000820C1092810C1092840C1092830C109217
:1057D000860C1092850C4FEF5FEF5093880C40932E
:1057E000870C49E759EE6CE171E44093890C5093C2
:1057F0008A0C60938B0C70938C0C45E35AEF6EE827
:105800007CE340938D0C50938E0C60938F0C7093BF
:10581000900C3BE33093910C33E43093920C31E4E1
:105820003093930C39E43093940C3CE13093950C15
:105830001092960C2093970C30E13093980C48E12D
:105840004093990C5BE150939A0C10929B0C20931F
:105850009C0C30939D0C40939E0C4DE140939F0C0B
:105860008093A00C72E07093A10C43E04093A20CD3
:10587000E093A30C65E06093A40C56E05093A50C54
:10588000FAE1F093A60C8093A70C7093A80C4093B8
:10589000A90CE093AA0C6093AB0C5093AC0C59E1AB
:1058A0005093AD0C57E35093AE0C58E35093AF0CAC
:1058B0001092B00C1092B10C50E45093B20C809343
:1058C000B30C6BE66093B40C60E26093B50C9093FC
:1058D000B60C8093B70C7CE67093B80C1092B90CA0
:1058E00077E07093BA0C7AE67093BB0C6093BC0CB3
:1058F0006DE06093BD0C64E26093BE0C65E2609362
:10590000BF0C66E26093C00C63E66093C10C67E273
:105910006093C20C9093C30C9093C40C69E660939F
:10592000C50C9093C60C5093C70C5EE15093C80C05
:105930005FE15093C90C55E75093CA0C53E2509362
:10594000CB0C9093CC0C90E79093CD0C2093CE0C85
:105950008093CF0C92E79093D00C94E79093D10C66
:105960009CE09093D20C4093D30C9AE09093D40C8B
:105970001092D50C92E19093D60C96E19093D70CAF
:105980009FE09093D80C9BE09093D90C8093DA0C15
:105990003093DB0C1092DC0C86E39BE09093440B7D
:1059A0008093430B88E68093420B10924E0B84EB5E
:1059B00092E090938906809388068AE794E090931A
:1059C0008B0680938A0680E091EEA0E0B0E08093A1
:1059D0008C0690938D06A0938E06B0938F0610923E
:1059E0000A0B88EA92E09093190B8093180B10929F
:1059F0001A0B10921B0B10921C0B10921D0B109285
:105A0000230B1092220B1092240B1092250B109254
:105A1000260B1092270B10922D0B10922C0B10922C
:105A20002E0B10922F0B1092300B1092310B109204
:105A3000350B1092340B8CE99AE0EEECFAE0DC01C5
:105A40001D921D922AE0AE3CB207D1F7119211923D
:105A50002BE0E030F207D1F7ACE9B6E0ECE9F8E092
:105A60001D92EA17FB07E1F711928E179F07E1F7E6
:105A700082EE92E090937B0680937A068AEC92E025
:105A80009093820680938106109283068BE797E0BD
:105A9000909385068093840681E090E0909387063A
:105AA000809386062BE433E030937F0620937E06B6
:105AB000109280062EEB32E030935206209351066E
:105AC0002CE932E0309359062093580620E932E061
:105AD00030935B0620935A0610925C0610925D0686
